{
  "contractName": "Diploma",
  "abi": [
    {
      "inputs": [],
      "payable": false,
      "stateMutability": "nonpayable",
      "type": "constructor"
    },
    {
      "constant": false,
      "inputs": [
        {
          "name": "hash",
          "type": "bytes32"
        }
      ],
      "name": "addDocHash",
      "outputs": [],
      "payable": false,
      "stateMutability": "nonpayable",
      "type": "function"
    },
    {
      "constant": true,
      "inputs": [
        {
          "name": "hash",
          "type": "bytes32"
        }
      ],
      "name": "findDocHash",
      "outputs": [
        {
          "name": "",
          "type": "uint256"
        },
        {
          "name": "",
          "type": "uint256"
        }
      ],
      "payable": false,
      "stateMutability": "view",
      "type": "function"
    }
  ],
  "bytecode": "0x608060405234801561001057600080fd5b506101b1806100206000396000f30060806040526004361061004c576000357c0100000000000000000000000000000000000000000000000000000000900463ffffffff168063133a48f3146100515780634cf00d3f14610082575b600080fd5b34801561005d57600080fd5b5061008060048036038101908080356000191690602001909291905050506100ce565b005b34801561008e57600080fd5b506100b16004803603810190808035600019169060200190929190505050610123565b604051808381526020018281526020019250505060405180910390f35b6100d661016b565b604080519081016040528042815260200143815250905080600080846000191660001916815260200190815260200160002060008201518160000155602082015181600101559050505050565b60008060008084600019166000191681526020019081526020016000206000015460008085600019166000191681526020019081526020016000206001015491509150915091565b6040805190810160405280600081526020016000815250905600a165627a7a723058203bf03c865d0e2f1ca6564df6a5b8d22787e760f6394e3c9e9d1401cf601a73080029",
  "source": "pragma solidity ^0.4.4;\n\n\ncontract Diploma {\n    struct Record {\n        uint mineTime;\n        uint blockNumber;\n    }\n\n    mapping (bytes32 => Record) private docHashes;\n\n    constructor() {\n      // constructor\n    }\n\n    function addDocHash(bytes32 hash) public {\n        Record memory newRecord = Record(now, block.number);\n        docHashes[hash] = newRecord;\n    }\n\n    function findDocHash(bytes32 hash) public view returns (uint, uint) {\n        return (docHashes[hash].mineTime, docHashes[hash].blockNumber);\n    }\n}\n\n",
  "sourcePath": "/Users/codev0/Code/digital-certificates/contracts/Diploma.sol",
  "compiler": {
    "name": "solc",
    "version": "0.4.24+commit.e67f0147.Emscripten.clang"
  },
  "schemaVersion": "2.0.0",
  "updatedAt": "2018-07-30T19:15:52.993Z"
}